{
  "_format": "hh-sol-artifact-1",
  "contractName": "L1Contract",
  "sourceName": "contracts/L1Contract.sol",
  "abi": [
    {
      "inputs": [
        {
          "internalType": "address",
          "name": "_l1Bridge",
          "type": "address"
        }
      ],
      "stateMutability": "nonpayable",
      "type": "constructor"
    },
    {
      "inputs": [
        {
          "internalType": "address",
          "name": "_to",
          "type": "address"
        },
        {
          "internalType": "uint256",
          "name": "_fee",
          "type": "uint256"
        },
        {
          "internalType": "bytes",
          "name": "_calldata",
          "type": "bytes"
        }
      ],
      "name": "sendMessageToL2",
      "outputs": [],
      "stateMutability": "nonpayable",
      "type": "function"
    }
  ],
  "bytecode": "0x608060405234801561001057600080fd5b5060405161056c38038061056c833981810160405281019061003291906100db565b806000806101000a81548173ffffffffffffffffffffffffffffffffffffffff021916908373ffffffffffffffffffffffffffffffffffffffff16021790555050610108565b600080fd5b600073ffffffffffffffffffffffffffffffffffffffff82169050919050565b60006100a88261007d565b9050919050565b6100b88161009d565b81146100c357600080fd5b50565b6000815190506100d5816100af565b92915050565b6000602082840312156100f1576100f0610078565b5b60006100ff848285016100c6565b91505092915050565b610455806101176000396000f3fe608060405234801561001057600080fd5b506004361061002b5760003560e01c8063cc05869a14610030575b600080fd5b61004a600480360381019061004591906102d5565b61004c565b005b60008060009054906101000a900473ffffffffffffffffffffffffffffffffffffffff1690508073ffffffffffffffffffffffffffffffffffffffff16639f3ce55a8585856040518463ffffffff1660e01b81526004016100af939291906103e1565b600060405180830381600087803b1580156100c957600080fd5b505af11580156100dd573d6000803e3d6000fd5b5050505050505050565b6000604051905090565b600080fd5b600080fd5b600073ffffffffffffffffffffffffffffffffffffffff82169050919050565b6000610126826100fb565b9050919050565b6101368161011b565b811461014157600080fd5b50565b6000813590506101538161012d565b92915050565b6000819050919050565b61016c81610159565b811461017757600080fd5b50565b60008135905061018981610163565b92915050565b600080fd5b600080fd5b6000601f19601f8301169050919050565b7f4e487b7100000000000000000000000000000000000000000000000000000000600052604160045260246000fd5b6101e282610199565b810181811067ffffffffffffffff82111715610201576102006101aa565b5b80604052505050565b60006102146100e7565b905061022082826101d9565b919050565b600067ffffffffffffffff8211156102405761023f6101aa565b5b61024982610199565b9050602081019050919050565b82818337600083830152505050565b600061027861027384610225565b61020a565b90508281526020810184848401111561029457610293610194565b5b61029f848285610256565b509392505050565b600082601f8301126102bc576102bb61018f565b5b81356102cc848260208601610265565b91505092915050565b6000806000606084860312156102ee576102ed6100f1565b5b60006102fc86828701610144565b935050602061030d8682870161017a565b925050604084013567ffffffffffffffff81111561032e5761032d6100f6565b5b61033a868287016102a7565b9150509250925092565b61034d8161011b565b82525050565b61035c81610159565b82525050565b600081519050919050565b600082825260208201905092915050565b60005b8381101561039c578082015181840152602081019050610381565b60008484015250505050565b60006103b382610362565b6103bd818561036d565b93506103cd81856020860161037e565b6103d681610199565b840191505092915050565b60006060820190506103f66000830186610344565b6104036020830185610353565b818103604083015261041581846103a8565b905094935050505056fea26469706673582212207181adf7bfb7a14363a26b4f91c1d8ff3c1e46c2eb1a45efbf5c5feadf1a61cc64736f6c63430008130033",
  "linkReferences": {},
  "deployedLinkReferences": {}
}